{
  "_format": "hh-sol-artifact-1",
  "contractName": "FundChain",
  "sourceName": "contracts/FundChain.sol",
  "abi": [
    {
      "inputs": [
        {
          "internalType": "uint256",
          "name": "",
          "type": "uint256"
        }
      ],
      "name": "campaigns",
      "outputs": [
        {
          "internalType": "address",
          "name": "owner",
          "type": "address"
        },
        {
          "internalType": "string",
          "name": "title",
          "type": "string"
        },
        {
          "internalType": "string",
          "name": "description",
          "type": "string"
        },
        {
          "internalType": "uint256",
          "name": "target",
          "type": "uint256"
        },
        {
          "internalType": "uint256",
          "name": "deadline",
          "type": "uint256"
        },
        {
          "internalType": "uint256",
          "name": "amountCollected",
          "type": "uint256"
        },
        {
          "internalType": "string",
          "name": "image",
          "type": "string"
        }
      ],
      "stateMutability": "view",
      "type": "function"
    },
    {
      "inputs": [
        {
          "internalType": "address",
          "name": "_owner",
          "type": "address"
        },
        {
          "internalType": "string",
          "name": "_title",
          "type": "string"
        },
        {
          "internalType": "string",
          "name": "_description",
          "type": "string"
        },
        {
          "internalType": "uint256",
          "name": "_target",
          "type": "uint256"
        },
        {
          "internalType": "uint256",
          "name": "_deadline",
          "type": "uint256"
        },
        {
          "internalType": "string",
          "name": "_image",
          "type": "string"
        }
      ],
      "name": "createCampaign",
      "outputs": [
        {
          "internalType": "uint256",
          "name": "",
          "type": "uint256"
        }
      ],
      "stateMutability": "nonpayable",
      "type": "function"
    },
    {
      "inputs": [
        {
          "internalType": "uint256",
          "name": "_id",
          "type": "uint256"
        }
      ],
      "name": "donateToCampaign",
      "outputs": [],
      "stateMutability": "payable",
      "type": "function"
    },
    {
      "inputs": [],
      "name": "getCampaigns",
      "outputs": [
        {
          "components": [
            {
              "internalType": "address",
              "name": "owner",
              "type": "address"
            },
            {
              "internalType": "string",
              "name": "title",
              "type": "string"
            },
            {
              "internalType": "string",
              "name": "description",
              "type": "string"
            },
            {
              "internalType": "uint256",
              "name": "target",
              "type": "uint256"
            },
            {
              "internalType": "uint256",
              "name": "deadline",
              "type": "uint256"
            },
            {
              "internalType": "uint256",
              "name": "amountCollected",
              "type": "uint256"
            },
            {
              "internalType": "string",
              "name": "image",
              "type": "string"
            },
            {
              "internalType": "address[]",
              "name": "donators",
              "type": "address[]"
            },
            {
              "internalType": "uint256[]",
              "name": "donations",
              "type": "uint256[]"
            }
          ],
          "internalType": "struct FundChain.Campaign[]",
          "name": "",
          "type": "tuple[]"
        }
      ],
      "stateMutability": "view",
      "type": "function"
    },
    {
      "inputs": [
        {
          "internalType": "uint256",
          "name": "_id",
          "type": "uint256"
        }
      ],
      "name": "getDonators",
      "outputs": [
        {
          "internalType": "address[]",
          "name": "",
          "type": "address[]"
        },
        {
          "internalType": "uint256[]",
          "name": "",
          "type": "uint256[]"
        }
      ],
      "stateMutability": "view",
      "type": "function"
    },
    {
      "inputs": [],
      "name": "numberOfCampaigns",
      "outputs": [
        {
          "internalType": "uint256",
          "name": "",
          "type": "uint256"
        }
      ],
      "stateMutability": "view",
      "type": "function"
    }
  ],
  "bytecode": "0x6080604052600060015534801561001557600080fd5b50611792806100256000396000f3fe6080604052600436106100555760003560e01c806307ca140d1461005a5780630fa91fa914610085578063141961bc146100c357806342a4fda8146101065780639943e3a114610122578063a6b036331461015f575b600080fd5b34801561006657600080fd5b5061006f61018a565b60405161007c9190610c2a565b60405180910390f35b34801561009157600080fd5b506100ac60048036038101906100a79190610c85565b610190565b6040516100ba929190610e60565b60405180910390f35b3480156100cf57600080fd5b506100ea60048036038101906100e59190610c85565b6102a0565b6040516100fd9796959493929190610f3f565b60405180910390f35b610120600480360381019061011b9190610c85565b61049a565b005b34801561012e57600080fd5b5061014960048036038101906101449190611124565b6105fa565b6040516101569190610c2a565b60405180910390f35b34801561016b57600080fd5b50610174610736565b60405161018191906114d0565b60405180910390f35b60015481565b6060806000808481526020019081526020016000206007016000808581526020019081526020016000206008018180548060200260200160405190810160405280929190818152602001828054801561023e57602002820191906000526020600020905b8160009054906101000a900473ffffffffffffffffffffffffffffffffffffffff1673ffffffffffffffffffffffffffffffffffffffff16815260200190600101908083116101f4575b505050505091508080548060200260200160405190810160405280929190818152602001828054801561029057602002820191906000526020600020905b81548152602001906001019080831161027c575b5050505050905091509150915091565b60006020528060005260406000206000915090508060000160009054906101000a900473ffffffffffffffffffffffffffffffffffffffff16908060010180546102e990611521565b80601f016020809104026020016040519081016040528092919081815260200182805461031590611521565b80156103625780601f1061033757610100808354040283529160200191610362565b820191906000526020600020905b81548152906001019060200180831161034557829003601f168201915b50505050509080600201805461037790611521565b80601f01602080910402602001604051908101604052809291908181526020018280546103a390611521565b80156103f05780601f106103c5576101008083540402835291602001916103f0565b820191906000526020600020905b8154815290600101906020018083116103d357829003601f168201915b50505050509080600301549080600401549080600501549080600601805461041790611521565b80601f016020809104026020016040519081016040528092919081815260200182805461044390611521565b80156104905780601f1061046557610100808354040283529160200191610490565b820191906000526020600020905b81548152906001019060200180831161047357829003601f168201915b5050505050905087565b60003490506000806000848152602001908152602001600020905080600701339080600181540180825580915050600190039060005260206000200160009091909190916101000a81548173ffffffffffffffffffffffffffffffffffffffff021916908373ffffffffffffffffffffffffffffffffffffffff1602179055508060080182908060018154018082558091505060019003906000526020600020016000909190919091505560008160000160009054906101000a900473ffffffffffffffffffffffffffffffffffffffff1673ffffffffffffffffffffffffffffffffffffffff168360405161058f90611584565b60006040518083038185875af1925050503d80600081146105cc576040519150601f19603f3d011682016040523d82523d6000602084013e6105d1565b606091505b5050905080156105f4578282600501546105eb91906115c8565b82600501819055505b50505050565b6000806000806001548152602001908152602001600020905042816004015410610659576040517f08c379a000000000000000000000000000000000000000000000000000000000815260040161065090611690565b60405180910390fd5b878160000160006101000a81548173ffffffffffffffffffffffffffffffffffffffff021916908373ffffffffffffffffffffffffffffffffffffffff160217905550868160010190805190602001906106b4929190610b0c565b50858160020190805190602001906106cd929190610b0c565b508481600301819055508381600401819055506000816005018190555082816006019080519060200190610702929190610b0c565b5060016000815480929190610716906116b0565b91905055506001805461072991906116f9565b9150509695505050505050565b6060600060015467ffffffffffffffff81111561075657610755610ff9565b5b60405190808252806020026020018201604052801561078f57816020015b61077c610b92565b8152602001906001900390816107745790505b50905060005b600154811015610b04576000806000838152602001908152602001600020905080604051806101200160405290816000820160009054906101000a900473ffffffffffffffffffffffffffffffffffffffff1673ffffffffffffffffffffffffffffffffffffffff1673ffffffffffffffffffffffffffffffffffffffff16815260200160018201805461082890611521565b80601f016020809104026020016040519081016040528092919081815260200182805461085490611521565b80156108a15780601f10610876576101008083540402835291602001916108a1565b820191906000526020600020905b81548152906001019060200180831161088457829003601f168201915b505050505081526020016002820180546108ba90611521565b80601f01602080910402602001604051908101604052809291908181526020018280546108e690611521565b80156109335780601f1061090857610100808354040283529160200191610933565b820191906000526020600020905b81548152906001019060200180831161091657829003601f168201915b5050505050815260200160038201548152602001600482015481526020016005820154815260200160068201805461096a90611521565b80601f016020809104026020016040519081016040528092919081815260200182805461099690611521565b80156109e35780601f106109b8576101008083540402835291602001916109e3565b820191906000526020600020905b8154815290600101906020018083116109c657829003601f168201915b5050505050815260200160078201805480602002602001604051908101604052809291908181526020018280548015610a7157602002820191906000526020600020905b8160009054906101000a900473ffffffffffffffffffffffffffffffffffffffff1673ffffffffffffffffffffffffffffffffffffffff1681526020019060010190808311610a27575b5050505050815260200160088201805480602002602001604051908101604052809291908181526020018280548015610ac957602002820191906000526020600020905b815481526020019060010190808311610ab5575b505050505081525050838381518110610ae557610ae461172d565b5b6020026020010181905250508080610afc906116b0565b915050610795565b508091505090565b828054610b1890611521565b90600052602060002090601f016020900481019282610b3a5760008555610b81565b82601f10610b5357805160ff1916838001178555610b81565b82800160010185558215610b81579182015b82811115610b80578251825591602001919060010190610b65565b5b509050610b8e9190610bf4565b5090565b604051806101200160405280600073ffffffffffffffffffffffffffffffffffffffff16815260200160608152602001606081526020016000815260200160008152602001600081526020016060815260200160608152602001606081525090565b5b80821115610c0d576000816000905550600101610bf5565b5090565b6000819050919050565b610c2481610c11565b82525050565b6000602082019050610c3f6000830184610c1b565b92915050565b6000604051905090565b600080fd5b600080fd5b610c6281610c11565b8114610c6d57600080fd5b50565b600081359050610c7f81610c59565b92915050565b600060208284031215610c9b57610c9a610c4f565b5b6000610ca984828501610c70565b91505092915050565b600081519050919050565b600082825260208201905092915050565b6000819050602082019050919050565b600073ffffffffffffffffffffffffffffffffffffffff82169050919050565b6000610d0982610cde565b9050919050565b610d1981610cfe565b82525050565b6000610d2b8383610d10565b60208301905092915050565b6000602082019050919050565b6000610d4f82610cb2565b610d598185610cbd565b9350610d6483610cce565b8060005b83811015610d95578151610d7c8882610d1f565b9750610d8783610d37565b925050600181019050610d68565b5085935050505092915050565b600081519050919050565b600082825260208201905092915050565b6000819050602082019050919050565b610dd781610c11565b82525050565b6000610de98383610dce565b60208301905092915050565b6000602082019050919050565b6000610e0d82610da2565b610e178185610dad565b9350610e2283610dbe565b8060005b83811015610e53578151610e3a8882610ddd565b9750610e4583610df5565b925050600181019050610e26565b5085935050505092915050565b60006040820190508181036000830152610e7a8185610d44565b90508181036020830152610e8e8184610e02565b90509392505050565b610ea081610cfe565b82525050565b600081519050919050565b600082825260208201905092915050565b60005b83811015610ee0578082015181840152602081019050610ec5565b83811115610eef576000848401525b50505050565b6000601f19601f8301169050919050565b6000610f1182610ea6565b610f1b8185610eb1565b9350610f2b818560208601610ec2565b610f3481610ef5565b840191505092915050565b600060e082019050610f54600083018a610e97565b8181036020830152610f668189610f06565b90508181036040830152610f7a8188610f06565b9050610f896060830187610c1b565b610f966080830186610c1b565b610fa360a0830185610c1b565b81810360c0830152610fb58184610f06565b905098975050505050505050565b610fcc81610cfe565b8114610fd757600080fd5b50565b600081359050610fe981610fc3565b92915050565b600080fd5b600080fd5b7f4e487b7100000000000000000000000000000000000000000000000000000000600052604160045260246000fd5b61103182610ef5565b810181811067ffffffffffffffff821117156110505761104f610ff9565b5b80604052505050565b6000611063610c45565b905061106f8282611028565b919050565b600067ffffffffffffffff82111561108f5761108e610ff9565b5b61109882610ef5565b9050602081019050919050565b82818337600083830152505050565b60006110c76110c284611074565b611059565b9050828152602081018484840111156110e3576110e2610ff4565b5b6110ee8482856110a5565b509392505050565b600082601f83011261110b5761110a610fef565b5b813561111b8482602086016110b4565b91505092915050565b60008060008060008060c0878903121561114157611140610c4f565b5b600061114f89828a01610fda565b965050602087013567ffffffffffffffff8111156111705761116f610c54565b5b61117c89828a016110f6565b955050604087013567ffffffffffffffff81111561119d5761119c610c54565b5b6111a989828a016110f6565b94505060606111ba89828a01610c70565b93505060806111cb89828a01610c70565b92505060a087013567ffffffffffffffff8111156111ec576111eb610c54565b5b6111f889828a016110f6565b9150509295509295509295565b600081519050919050565b600082825260208201905092915050565b6000819050602082019050919050565b600082825260208201905092915050565b600061124d82610ea6565b6112578185611231565b9350611267818560208601610ec2565b61127081610ef5565b840191505092915050565b600082825260208201905092915050565b600061129782610cb2565b6112a1818561127b565b93506112ac83610cce565b8060005b838110156112dd5781516112c48882610d1f565b97506112cf83610d37565b9250506001810190506112b0565b5085935050505092915050565b600082825260208201905092915050565b600061130682610da2565b61131081856112ea565b935061131b83610dbe565b8060005b8381101561134c5781516113338882610ddd565b975061133e83610df5565b92505060018101905061131f565b5085935050505092915050565b6000610120830160008301516113726000860182610d10565b506020830151848203602086015261138a8282611242565b915050604083015184820360408601526113a48282611242565b91505060608301516113b96060860182610dce565b5060808301516113cc6080860182610dce565b5060a08301516113df60a0860182610dce565b5060c083015184820360c08601526113f78282611242565b91505060e083015184820360e0860152611411828261128c565b91505061010083015184820361010086015261142d82826112fb565b9150508091505092915050565b60006114468383611359565b905092915050565b6000602082019050919050565b600061146682611205565b6114708185611210565b93508360208202850161148285611221565b8060005b858110156114be578484038952815161149f858261143a565b94506114aa8361144e565b925060208a01995050600181019050611486565b50829750879550505050505092915050565b600060208201905081810360008301526114ea818461145b565b905092915050565b7f4e487b7100000000000000000000000000000000000000000000000000000000600052602260045260246000fd5b6000600282049050600182168061153957607f821691505b6020821081141561154d5761154c6114f2565b5b50919050565b600081905092915050565b50565b600061156e600083611553565b91506115798261155e565b600082019050919050565b600061158f82611561565b9150819050919050565b7f4e487b7100000000000000000000000000000000000000000000000000000000600052601160045260246000fd5b60006115d382610c11565b91506115de83610c11565b9250827fffffffffffffffffffffffffffffffffffffffffffffffffffffffffffffffff0382111561161357611612611599565b5b828201905092915050565b7f54686520646561646c696e652073686f756c642062652061206461746520696e60008201527f20746865206675747572652e0000000000000000000000000000000000000000602082015250565b600061167a602c83610eb1565b91506116858261161e565b604082019050919050565b600060208201905081810360008301526116a98161166d565b9050919050565b60006116bb82610c11565b91507fffffffffffffffffffffffffffffffffffffffffffffffffffffffffffffffff8214156116ee576116ed611599565b5b600182019050919050565b600061170482610c11565b915061170f83610c11565b92508282101561172257611721611599565b5b828203905092915050565b7f4e487b7100000000000000000000000000000000000000000000000000000000600052603260045260246000fdfea264697066735822122056766b7ca6ae5ea95468aa9961e15b514490be7cf6e98839bb6053f3156efa6264736f6c63430008090033",
  "linkReferences": {},
  "deployedLinkReferences": {}
}